{
  "contractName": "miniBank",
  "abi": [
    {
      "inputs": [
        {
          "internalType": "contract Token",
          "name": "_token",
          "type": "address"
        }
      ],
      "stateMutability": "nonpayable",
      "type": "constructor"
    },
    {
      "anonymous": false,
      "inputs": [
        {
          "indexed": true,
          "internalType": "address",
          "name": "user",
          "type": "address"
        },
        {
          "indexed": false,
          "internalType": "uint256",
          "name": "ethAmount",
          "type": "uint256"
        },
        {
          "indexed": false,
          "internalType": "uint256",
          "name": "timestamp",
          "type": "uint256"
        }
      ],
      "name": "Deposit",
      "type": "event"
    },
    {
      "anonymous": false,
      "inputs": [
        {
          "indexed": true,
          "internalType": "address",
          "name": "user",
          "type": "address"
        },
        {
          "indexed": false,
          "internalType": "uint256",
          "name": "ethAmount",
          "type": "uint256"
        },
        {
          "indexed": false,
          "internalType": "uint256",
          "name": "depositTime",
          "type": "uint256"
        },
        {
          "indexed": false,
          "internalType": "uint256",
          "name": "interest",
          "type": "uint256"
        }
      ],
      "name": "Withdraw",
      "type": "event"
    },
    {
      "inputs": [
        {
          "internalType": "address",
          "name": "",
          "type": "address"
        }
      ],
      "name": "depositStart",
      "outputs": [
        {
          "internalType": "uint256",
          "name": "",
          "type": "uint256"
        }
      ],
      "stateMutability": "view",
      "type": "function"
    },
    {
      "inputs": [
        {
          "internalType": "address",
          "name": "",
          "type": "address"
        }
      ],
      "name": "etherBalanceOf",
      "outputs": [
        {
          "internalType": "uint256",
          "name": "",
          "type": "uint256"
        }
      ],
      "stateMutability": "view",
      "type": "function"
    },
    {
      "inputs": [
        {
          "internalType": "address",
          "name": "",
          "type": "address"
        }
      ],
      "name": "isDeposited",
      "outputs": [
        {
          "internalType": "bool",
          "name": "",
          "type": "bool"
        }
      ],
      "stateMutability": "view",
      "type": "function"
    },
    {
      "inputs": [],
      "name": "deposit",
      "outputs": [],
      "stateMutability": "payable",
      "type": "function"
    },
    {
      "inputs": [],
      "name": "withdraw",
      "outputs": [],
      "stateMutability": "nonpayable",
      "type": "function"
    }
  ],
  "bytecode": "0x608060405234801561001057600080fd5b50604051610d74380380610d74833981810160405281019061003291906100ed565b806000806101000a81548173ffffffffffffffffffffffffffffffffffffffff021916908373ffffffffffffffffffffffffffffffffffffffff1602179055505061011a565b600080fd5b600073ffffffffffffffffffffffffffffffffffffffff82169050919050565b60006100a88261007d565b9050919050565b60006100ba8261009d565b9050919050565b6100ca816100af565b81146100d557600080fd5b50565b6000815190506100e7816100c1565b92915050565b60006020828403121561010357610102610078565b5b6000610111848285016100d8565b91505092915050565b610c4b806101296000396000f3fe60806040526004361061004a5760003560e01c8063179fc99f1461004f5780633ccfd60b1461008c57806373732024146100a3578063d0e30db0146100e0578063ff87930a146100ea575b600080fd5b34801561005b57600080fd5b506100766004803603810190610071919061081e565b610127565b6040516100839190610864565b60405180910390f35b34801561009857600080fd5b506100a161013f565b005b3480156100af57600080fd5b506100ca60048036038101906100c5919061081e565b6104e8565b6040516100d7919061089a565b60405180910390f35b6100e8610508565b005b3480156100f657600080fd5b50610111600480360381019061010c919061081e565b6107a3565b60405161011e9190610864565b60405180910390f35b60016020528060005260406000206000915090505481565b60011515600360003373ffffffffffffffffffffffffffffffffffffffff1673ffffffffffffffffffffffffffffffffffffffff16815260200190815260200160002060009054906101000a900460ff161515146101d2576040517f08c379a00000000000000000000000000000000000000000000000000000000081526004016101c990610912565b60405180910390fd5b6000600160003373ffffffffffffffffffffffffffffffffffffffff1673ffffffffffffffffffffffffffffffffffffffff1681526020019081526020016000205490506000600260003373ffffffffffffffffffffffffffffffffffffffff1673ffffffffffffffffffffffffffffffffffffffff16815260200190815260200160002054426102639190610961565b90506000662386f26fc10000600160003373ffffffffffffffffffffffffffffffffffffffff1673ffffffffffffffffffffffffffffffffffffffff168152602001908152602001600020546102b991906109c4565b6301e337316102c891906109f5565b9050600082826102d891906109f5565b90503373ffffffffffffffffffffffffffffffffffffffff166108fc859081150290604051600060405180830381858888f19350505050158015610320573d6000803e3d6000fd5b5060008054906101000a900473ffffffffffffffffffffffffffffffffffffffff1673ffffffffffffffffffffffffffffffffffffffff166340c10f1933836040518363ffffffff1660e01b815260040161037c929190610a5e565b600060405180830381600087803b15801561039657600080fd5b505af11580156103aa573d6000803e3d6000fd5b505050506000600260003373ffffffffffffffffffffffffffffffffffffffff1673ffffffffffffffffffffffffffffffffffffffff168152602001908152602001600020819055506000600160003373ffffffffffffffffffffffffffffffffffffffff1673ffffffffffffffffffffffffffffffffffffffff168152602001908152602001600020819055506000600360003373ffffffffffffffffffffffffffffffffffffffff1673ffffffffffffffffffffffffffffffffffffffff16815260200190815260200160002060006101000a81548160ff0219169083151502179055503373ffffffffffffffffffffffffffffffffffffffff167f02f25270a4d87bea75db541cdfe559334a275b4a233520ed6c0a2429667cca948585846040516104da93929190610a87565b60405180910390a250505050565b60036020528060005260406000206000915054906101000a900460ff1681565b60001515600360003373ffffffffffffffffffffffffffffffffffffffff1673ffffffffffffffffffffffffffffffffffffffff16815260200190815260200160002060009054906101000a900460ff1615151461059b576040517f08c379a000000000000000000000000000000000000000000000000000000000815260040161059290610b0a565b60405180910390fd5b662386f26fc100003410156105e5576040517f08c379a00000000000000000000000000000000000000000000000000000000081526004016105dc90610b76565b60405180910390fd5b34600160003373ffffffffffffffffffffffffffffffffffffffff1673ffffffffffffffffffffffffffffffffffffffff168152602001908152602001600020546106309190610b96565b600160003373ffffffffffffffffffffffffffffffffffffffff1673ffffffffffffffffffffffffffffffffffffffff1681526020019081526020016000208190555042600260003373ffffffffffffffffffffffffffffffffffffffff1673ffffffffffffffffffffffffffffffffffffffff168152602001908152602001600020546106be9190610b96565b600260003373ffffffffffffffffffffffffffffffffffffffff1673ffffffffffffffffffffffffffffffffffffffff1681526020019081526020016000208190555060011515600360003373ffffffffffffffffffffffffffffffffffffffff1673ffffffffffffffffffffffffffffffffffffffff16815260200190815260200160002060009054906101000a905050503373ffffffffffffffffffffffffffffffffffffffff167f90890809c654f11d6e72a28fa60149770a0d11ec6c92319d6ceb2bb0a4ea1a153442604051610799929190610bec565b60405180910390a2565b60026020528060005260406000206000915090505481565b600080fd5b600073ffffffffffffffffffffffffffffffffffffffff82169050919050565b60006107eb826107c0565b9050919050565b6107fb816107e0565b811461080657600080fd5b50565b600081359050610818816107f2565b92915050565b600060208284031215610834576108336107bb565b5b600061084284828501610809565b91505092915050565b6000819050919050565b61085e8161084b565b82525050565b60006020820190506108796000830184610855565b92915050565b60008115159050919050565b6108948161087f565b82525050565b60006020820190506108af600083018461088b565b92915050565b600082825260208201905092915050565b7f596f752068617665206e6f206465706f73697400000000000000000000000000600082015250565b60006108fc6013836108b5565b9150610907826108c6565b602082019050919050565b6000602082019050818103600083015261092b816108ef565b9050919050565b7f4e487b7100000000000000000000000000000000000000000000000000000000600052601160045260246000fd5b600061096c8261084b565b91506109778361084b565b92508282101561098a57610989610932565b5b828203905092915050565b7f4e487b7100000000000000000000000000000000000000000000000000000000600052601260045260246000fd5b60006109cf8261084b565b91506109da8361084b565b9250826109ea576109e9610995565b5b828204905092915050565b6000610a008261084b565b9150610a0b8361084b565b9250817fffffffffffffffffffffffffffffffffffffffffffffffffffffffffffffffff0483118215151615610a4457610a43610932565b5b828202905092915050565b610a58816107e0565b82525050565b6000604082019050610a736000830185610a4f565b610a806020830184610855565b9392505050565b6000606082019050610a9c6000830186610855565b610aa96020830185610855565b610ab66040830184610855565b949350505050565b7f616c7265616479206465706f7369746564000000000000000000000000000000600082015250565b6000610af46011836108b5565b9150610aff82610abe565b602082019050919050565b60006020820190508181036000830152610b2381610ae7565b9050919050565b7f6465706f736974206d757374206265203e3d20302e3031204554480000000000600082015250565b6000610b60601b836108b5565b9150610b6b82610b2a565b602082019050919050565b60006020820190508181036000830152610b8f81610b53565b9050919050565b6000610ba18261084b565b9150610bac8361084b565b9250827fffffffffffffffffffffffffffffffffffffffffffffffffffffffffffffffff03821115610be157610be0610932565b5b828201905092915050565b6000604082019050610c016000830185610855565b610c0e6020830184610855565b939250505056fea2646970667358221220bfe56e3f83dc7e227e2d3c110f75c58466855ba5d6069f419913ab1be297574c64736f6c634300080e0033",
  "immutableReferences": {},
  "source": "// // SPDX-License-Identifier:MIT\r\npragma solidity ^0.8.14;\r\n\r\nimport \"./Token.sol\";\r\n\r\ncontract miniBank{\r\n    // assign Token contract to variable\r\n    Token private token;\r\n\r\n    // add mapping\r\n    mapping(address => uint) public etherBalanceOf;\r\n    mapping(address => uint) public depositStart;\r\n    mapping(address => bool) public isDeposited;\r\n\r\n\r\n\r\n    // add   events\r\n    event Deposit(address indexed user, uint ethAmount, uint timestamp);\r\n    event Withdraw(address indexed user, uint ethAmount, uint depositTime, uint interest);\r\n    // pass as constructor argument deployed Token contract\r\n\r\n    constructor(Token _token) public {\r\n        // assign token deployed contract to variable\r\n        token = _token;\r\n    }\r\n\r\n\r\n    function deposit() public payable  {\r\n        // check if msg.sender didnt already deposited funds\r\n        require(isDeposited[msg.sender] == false, \"already deposited\");\r\n        // check if msg.value is >= than 0.01 ETH\r\n        require(msg.value>=1e16, \"deposit must be >= 0.01 ETH\");\r\n\r\n\r\n        // increase msg.sender ether deposit funds \r\n        etherBalanceOf[msg.sender] = etherBalanceOf[msg.sender] + msg.value;\r\n\r\n        // start msg.sender hodling time\r\n        depositStart[msg.sender] = depositStart[msg.sender] + block.timestamp;\r\n\r\n        // set msg.sender deposit status to true \r\n        isDeposited[msg.sender]==true;\r\n\r\n        // emit Deposit event\r\n        emit Deposit(msg.sender, msg.value,block.timestamp);\r\n\r\n    }\r\n\r\n    function withdraw() public {\r\n        // check if msg.sender deposit status is true\r\n        require(isDeposited[msg.sender] == true, \"You have no deposit\"); \r\n\r\n        // assign msg.sender ether deposit bal to variable for event\r\n        uint userBalance = etherBalanceOf[msg.sender]; \r\n\r\n        //  check users hold time\r\n        uint depositTime = block.timestamp - depositStart[msg.sender];\r\n\r\n        // calc interest per sec \r\n        uint interestPerSecond = 31668017 * (etherBalanceOf[msg.sender]/1e16);\r\n        // calc accrued interest\r\n        uint interest = interestPerSecond * depositTime;\r\n\r\n        // send eth to user\r\n        (payable(msg.sender)).transfer(userBalance);\r\n\r\n        // send interest in tokens to user\r\n        token.mint(msg.sender, interest);  \r\n \r\n        // reset depositor data\r\n        depositStart[msg.sender] =0;\r\n        etherBalanceOf[msg.sender] = 0;\r\n        isDeposited[msg.sender] = false;\r\n\r\n        // emit Withdrawal event event\r\n        emit Withdraw(msg.sender, userBalance, depositTime, interest);\r\n\r\n    }\r\n}",
  "sourcePath": "C:\\Users\\Prince-Joel\\neww\\contracts\\miniBank.sol",
  "compiler": {
    "name": "solc",
    "version": "0.8.14+commit.80d49f37.Emscripten.clang"
  },
  "schemaVersion": "3.4.7",
  "updatedAt": "2022-06-24T07:27:50.007Z",
  "networkType": "ethereum",
  "devdoc": {
    "kind": "dev",
    "methods": {},
    "version": 1
  },
  "userdoc": {
    "kind": "user",
    "methods": {},
    "version": 1
  }
}